{
  "_format": "hh-sol-artifact-1",
  "contractName": "MyEpicNFT",
  "sourceName": "contracts/MyEpicNFT.sol",
  "abi": [
    {
      "inputs": [],
      "stateMutability": "nonpayable",
      "type": "constructor"
    },
    {
      "anonymous": false,
      "inputs": [
        {
          "indexed": true,
          "internalType": "address",
          "name": "owner",
          "type": "address"
        },
        {
          "indexed": true,
          "internalType": "address",
          "name": "approved",
          "type": "address"
        },
        {
          "indexed": true,
          "internalType": "uint256",
          "name": "tokenId",
          "type": "uint256"
        }
      ],
      "name": "Approval",
      "type": "event"
    },
    {
      "anonymous": false,
      "inputs": [
        {
          "indexed": true,
          "internalType": "address",
          "name": "owner",
          "type": "address"
        },
        {
          "indexed": true,
          "internalType": "address",
          "name": "operator",
          "type": "address"
        },
        {
          "indexed": false,
          "internalType": "bool",
          "name": "approved",
          "type": "bool"
        }
      ],
      "name": "ApprovalForAll",
      "type": "event"
    },
    {
      "anonymous": false,
      "inputs": [
        {
          "indexed": false,
          "internalType": "address",
          "name": "sender",
          "type": "address"
        },
        {
          "indexed": false,
          "internalType": "uint256",
          "name": "tokenId",
          "type": "uint256"
        }
      ],
      "name": "NewEpicNFTMinted",
      "type": "event"
    },
    {
      "anonymous": false,
      "inputs": [
        {
          "indexed": true,
          "internalType": "address",
          "name": "from",
          "type": "address"
        },
        {
          "indexed": true,
          "internalType": "address",
          "name": "to",
          "type": "address"
        },
        {
          "indexed": true,
          "internalType": "uint256",
          "name": "tokenId",
          "type": "uint256"
        }
      ],
      "name": "Transfer",
      "type": "event"
    },
    {
      "inputs": [
        {
          "internalType": "address",
          "name": "to",
          "type": "address"
        },
        {
          "internalType": "uint256",
          "name": "tokenId",
          "type": "uint256"
        }
      ],
      "name": "approve",
      "outputs": [],
      "stateMutability": "nonpayable",
      "type": "function"
    },
    {
      "inputs": [
        {
          "internalType": "address",
          "name": "owner",
          "type": "address"
        }
      ],
      "name": "balanceOf",
      "outputs": [
        {
          "internalType": "uint256",
          "name": "",
          "type": "uint256"
        }
      ],
      "stateMutability": "view",
      "type": "function"
    },
    {
      "inputs": [
        {
          "internalType": "uint256",
          "name": "tokenId",
          "type": "uint256"
        }
      ],
      "name": "generateAdjective",
      "outputs": [
        {
          "internalType": "string",
          "name": "",
          "type": "string"
        }
      ],
      "stateMutability": "view",
      "type": "function"
    },
    {
      "inputs": [
        {
          "internalType": "uint256",
          "name": "tokenId",
          "type": "uint256"
        }
      ],
      "name": "generateColor1",
      "outputs": [
        {
          "internalType": "string",
          "name": "",
          "type": "string"
        }
      ],
      "stateMutability": "view",
      "type": "function"
    },
    {
      "inputs": [
        {
          "internalType": "uint256",
          "name": "tokenId",
          "type": "uint256"
        }
      ],
      "name": "generateColor2",
      "outputs": [
        {
          "internalType": "string",
          "name": "",
          "type": "string"
        }
      ],
      "stateMutability": "view",
      "type": "function"
    },
    {
      "inputs": [
        {
          "internalType": "uint256",
          "name": "tokenId",
          "type": "uint256"
        }
      ],
      "name": "generateColor3",
      "outputs": [
        {
          "internalType": "string",
          "name": "",
          "type": "string"
        }
      ],
      "stateMutability": "view",
      "type": "function"
    },
    {
      "inputs": [
        {
          "internalType": "uint256",
          "name": "tokenId",
          "type": "uint256"
        }
      ],
      "name": "generateColors",
      "outputs": [
        {
          "internalType": "string",
          "name": "",
          "type": "string"
        }
      ],
      "stateMutability": "view",
      "type": "function"
    },
    {
      "inputs": [
        {
          "internalType": "uint256",
          "name": "tokenId",
          "type": "uint256"
        }
      ],
      "name": "generateNoun",
      "outputs": [
        {
          "internalType": "string",
          "name": "",
          "type": "string"
        }
      ],
      "stateMutability": "view",
      "type": "function"
    },
    {
      "inputs": [
        {
          "internalType": "uint256",
          "name": "tokenId",
          "type": "uint256"
        }
      ],
      "name": "generatePersonality",
      "outputs": [
        {
          "internalType": "string",
          "name": "",
          "type": "string"
        }
      ],
      "stateMutability": "view",
      "type": "function"
    },
    {
      "inputs": [
        {
          "internalType": "uint256",
          "name": "tokenId",
          "type": "uint256"
        }
      ],
      "name": "getApproved",
      "outputs": [
        {
          "internalType": "address",
          "name": "",
          "type": "address"
        }
      ],
      "stateMutability": "view",
      "type": "function"
    },
    {
      "inputs": [
        {
          "internalType": "address",
          "name": "owner",
          "type": "address"
        },
        {
          "internalType": "address",
          "name": "operator",
          "type": "address"
        }
      ],
      "name": "isApprovedForAll",
      "outputs": [
        {
          "internalType": "bool",
          "name": "",
          "type": "bool"
        }
      ],
      "stateMutability": "view",
      "type": "function"
    },
    {
      "inputs": [],
      "name": "makeAnEpicNFT",
      "outputs": [],
      "stateMutability": "nonpayable",
      "type": "function"
    },
    {
      "inputs": [],
      "name": "name",
      "outputs": [
        {
          "internalType": "string",
          "name": "",
          "type": "string"
        }
      ],
      "stateMutability": "view",
      "type": "function"
    },
    {
      "inputs": [
        {
          "internalType": "uint256",
          "name": "tokenId",
          "type": "uint256"
        }
      ],
      "name": "ownerOf",
      "outputs": [
        {
          "internalType": "address",
          "name": "",
          "type": "address"
        }
      ],
      "stateMutability": "view",
      "type": "function"
    },
    {
      "inputs": [
        {
          "internalType": "address",
          "name": "from",
          "type": "address"
        },
        {
          "internalType": "address",
          "name": "to",
          "type": "address"
        },
        {
          "internalType": "uint256",
          "name": "tokenId",
          "type": "uint256"
        }
      ],
      "name": "safeTransferFrom",
      "outputs": [],
      "stateMutability": "nonpayable",
      "type": "function"
    },
    {
      "inputs": [
        {
          "internalType": "address",
          "name": "from",
          "type": "address"
        },
        {
          "internalType": "address",
          "name": "to",
          "type": "address"
        },
        {
          "internalType": "uint256",
          "name": "tokenId",
          "type": "uint256"
        },
        {
          "internalType": "bytes",
          "name": "_data",
          "type": "bytes"
        }
      ],
      "name": "safeTransferFrom",
      "outputs": [],
      "stateMutability": "nonpayable",
      "type": "function"
    },
    {
      "inputs": [
        {
          "internalType": "address",
          "name": "operator",
          "type": "address"
        },
        {
          "internalType": "bool",
          "name": "approved",
          "type": "bool"
        }
      ],
      "name": "setApprovalForAll",
      "outputs": [],
      "stateMutability": "nonpayable",
      "type": "function"
    },
    {
      "inputs": [
        {
          "internalType": "bytes4",
          "name": "interfaceId",
          "type": "bytes4"
        }
      ],
      "name": "supportsInterface",
      "outputs": [
        {
          "internalType": "bool",
          "name": "",
          "type": "bool"
        }
      ],
      "stateMutability": "view",
      "type": "function"
    },
    {
      "inputs": [],
      "name": "symbol",
      "outputs": [
        {
          "internalType": "string",
          "name": "",
          "type": "string"
        }
      ],
      "stateMutability": "view",
      "type": "function"
    },
    {
      "inputs": [
        {
          "internalType": "uint256",
          "name": "tokenId",
          "type": "uint256"
        }
      ],
      "name": "tokenURI",
      "outputs": [
        {
          "internalType": "string",
          "name": "",
          "type": "string"
        }
      ],
      "stateMutability": "view",
      "type": "function"
    },
    {
      "inputs": [
        {
          "internalType": "address",
          "name": "from",
          "type": "address"
        },
        {
          "internalType": "address",
          "name": "to",
          "type": "address"
        },
        {
          "internalType": "uint256",
          "name": "tokenId",
          "type": "uint256"
        }
      ],
      "name": "transferFrom",
      "outputs": [],
      "stateMutability": "nonpayable",
      "type": "function"
    }
  ],
  "bytecode": "0x60806040526040518060e0016040528060c08152602001620057d360c09139600890805190602001906200003592919062001329565b50604051806060016040528060228152602001620056d560229139600990805190602001906200006792919062001329565b506040518060600160405280603681526020016200579d60369139600a90805190602001906200009992919062001329565b506040518060e0016040528060a68152602001620056f760a69139600b9080519060200190620000cb92919062001329565b506040518061028001604052806040518060400160405280600481526020017f457069630000000000000000000000000000000000000000000000000000000081525081526020016040518060400160405280600581526020017f4368696c6c00000000000000000000000000000000000000000000000000000081525081526020016040518060400160405280600681526020017f436f76657274000000000000000000000000000000000000000000000000000081525081526020016040518060400160405280600681526020017f436c6f756479000000000000000000000000000000000000000000000000000081525081526020016040518060400160405280600681526020017f4272617a656e000000000000000000000000000000000000000000000000000081525081526020016040518060400160405280600e81526020017f53636174746572627261696e656400000000000000000000000000000000000081525081526020016040518060400160405280600781526020017f437572696f75730000000000000000000000000000000000000000000000000081525081526020016040518060400160405280600981526020017f536b6570746963616c000000000000000000000000000000000000000000000081525081526020016040518060400160405280600681526020017f536e65616b79000000000000000000000000000000000000000000000000000081525081526020016040518060400160405280600581526020017f44697a7a7900000000000000000000000000000000000000000000000000000081525081526020016040518060400160405280600581526020017f4372617a7900000000000000000000000000000000000000000000000000000081525081526020016040518060400160405280600681526020017f536c65657079000000000000000000000000000000000000000000000000000081525081526020016040518060400160405280600681526020017f48756e677279000000000000000000000000000000000000000000000000000081525081526020016040518060400160405280600781526020017f5765616c7468790000000000000000000000000000000000000000000000000081525081526020016040518060400160405280600981526020017f4f6273657373697665000000000000000000000000000000000000000000000081525081526020016040518060400160405280600b81526020017f4d697363686576696f757300000000000000000000000000000000000000000081525081526020016040518060400160405280600881526020017f47656e65726f757300000000000000000000000000000000000000000000000081525081526020016040518060400160405280600981526020017f4175646163696f7573000000000000000000000000000000000000000000000081525081526020016040518060400160405280600b81526020017f4173746f6e697368696e6700000000000000000000000000000000000000000081525081526020016040518060400160405280600481526020017f476c616d00000000000000000000000000000000000000000000000000000000815250815250600c90601462000584929190620013ba565b506040518061024001604052806040518060400160405280600581526020017f50697a7a6100000000000000000000000000000000000000000000000000000081525081526020016040518060400160405280600981526020017f47756163616d6f6c65000000000000000000000000000000000000000000000081525081526020016040518060400160405280600781526020017f4f61746d65616c0000000000000000000000000000000000000000000000000081525081526020016040518060400160405280600481526020017f5461636f0000000000000000000000000000000000000000000000000000000081525081526020016040518060400160405280600781526020017f436f726e646f670000000000000000000000000000000000000000000000000081525081526020016040518060400160405280600581526020017f537573686900000000000000000000000000000000000000000000000000000081525081526020016040518060400160405280600581526020017f52616d656e00000000000000000000000000000000000000000000000000000081525081526020016040518060400160405280600981526020017f537061676865747469000000000000000000000000000000000000000000000081525081526020016040518060400160405280600881526020017f45617379204d616300000000000000000000000000000000000000000000000081525081526020016040518060400160405280600b81526020017f4d696e757465205269636500000000000000000000000000000000000000000081525081526020016040518060400160405280600681526020017f4e6163686f73000000000000000000000000000000000000000000000000000081525081526020016040518060400160405280600881526020017f53617264696e657300000000000000000000000000000000000000000000000081525081526020016040518060400160405280600981526020017f4567672053616c6164000000000000000000000000000000000000000000000081525081526020016040518060400160405280600d81526020017f5065616e7574204275747465720000000000000000000000000000000000000081525081526020016040518060400160405280600e81526020017f466f7274756e6520436f6f6b696500000000000000000000000000000000000081525081526020016040518060400160405280600781526020017f436f636f6e75740000000000000000000000000000000000000000000000000081525081526020016040518060400160405280600b81526020017f4368696d696368616e676100000000000000000000000000000000000000000081525081526020016040518060400160405280600581526020017f5975636361000000000000000000000000000000000000000000000000000000815250815250600d906012620009c792919062001421565b506040518061028001604052806040518060400160405280600481526020017f53696d700000000000000000000000000000000000000000000000000000000081525081526020016040518060400160405280600481526020017f446976610000000000000000000000000000000000000000000000000000000081525081526020016040518060400160405280600581526020017f437265657000000000000000000000000000000000000000000000000000000081525081526020016040518060400160405280600581526020017f517565656e00000000000000000000000000000000000000000000000000000081525081526020016040518060400160405280600981526020017f436f6c6c6563746f72000000000000000000000000000000000000000000000081525081526020016040518060400160405280600781526020017f5374616c6b65720000000000000000000000000000000000000000000000000081525081526020016040518060400160405280600881526020017f4578706c6f72657200000000000000000000000000000000000000000000000081525081526020016040518060400160405280600981526020017f436f6e717565726f72000000000000000000000000000000000000000000000081525081526020016040518060400160405280600581526020017f536c61766500000000000000000000000000000000000000000000000000000081525081526020016040518060400160405280600481526020017f4b696e670000000000000000000000000000000000000000000000000000000081525081526020016040518060400160405280600681526020017f4b6e69676874000000000000000000000000000000000000000000000000000081525081526020016040518060400160405280600481526020017f537461720000000000000000000000000000000000000000000000000000000081525081526020016040518060400160405280600681526020017f46616e626f79000000000000000000000000000000000000000000000000000081525081526020016040518060400160405280600581526020017f467265616b00000000000000000000000000000000000000000000000000000081525081526020016040518060400160405280600681526020017f486f646c6572000000000000000000000000000000000000000000000000000081525081526020016040518060400160405280600981526020017f44657374726f796572000000000000000000000000000000000000000000000081525081526020016040518060400160405280600781526020017f477265617365720000000000000000000000000000000000000000000000000081525081526020016040518060400160405280600a81526020017f27426f72726f776572270000000000000000000000000000000000000000000081525081526020016040518060400160405280600581526020017f546869656600000000000000000000000000000000000000000000000000000081525081526020016040518060400160405280600781526020017f506f616368657200000000000000000000000000000000000000000000000000815250815250600e90601462000e80929190620013ba565b5060405180608001604052806040518060400160405280600781526020017f233734303062380000000000000000000000000000000000000000000000000081525081526020016040518060400160405280600781526020017f233639333063330000000000000000000000000000000000000000000000000081525081526020016040518060400160405280600781526020017f233732303962370000000000000000000000000000000000000000000000000081525081526020016040518060400160405280600781526020017f2362353137396500000000000000000000000000000000000000000000000000815250815250600f90600462000f8892919062001488565b5060405180606001604052806040518060400160405280600781526020017f233565363063650000000000000000000000000000000000000000000000000081525081526020016040518060400160405280600781526020017f233533393064390000000000000000000000000000000000000000000000000081525081526020016040518060400160405280600781526020017f2334656138646500000000000000000000000000000000000000000000000000815250815250601090600362001055929190620014ef565b5060405180608001604052806040518060400160405280600781526020017f233634646664660000000000000000000000000000000000000000000000000081525081526020016040518060400160405280600781526020017f233732656664640000000000000000000000000000000000000000000000000081525081526020016040518060400160405280600781526020017f233830666664620000000000000000000000000000000000000000000000000081525081526020016040518060400160405280600781526020017f233536636665310000000000000000000000000000000000000000000000000081525081525060119060046200115d92919062001488565b503480156200116b57600080fd5b506040518060400160405280600781526020017f457069634e4654000000000000000000000000000000000000000000000000008152506040518060400160405280600481526020017f45504943000000000000000000000000000000000000000000000000000000008152508160009080519060200190620011f092919062001329565b5080600190805190602001906200120992919062001329565b505050620012576040518060400160405280601681526020017f4c65742773206d696e7420616e20457069634e465421000000000000000000008152506200125d60201b620017c61760201c565b62001710565b620012fd8160405160240162001274919062001624565b6040516020818303038152906040527f41304fac000000000000000000000000000000000000000000000000000000007bffffffffffffffffffffffffffffffffffffffffffffffffffffffff19166020820180517bffffffffffffffffffffffffffffffffffffffffffffffffffffffff83818316178352505050506200130060201b60201c565b50565b60008151905060006a636f6e736f6c652e6c6f679050602083016000808483855afa5050505050565b82805462001337906200169a565b90600052602060002090601f0160209004810192826200135b5760008555620013a7565b82601f106200137657805160ff1916838001178555620013a7565b82800160010185558215620013a7579182015b82811115620013a657825182559160200191906001019062001389565b5b509050620013b6919062001556565b5090565b8280548282559060005260206000209081019282156200140e579160200282015b828111156200140d578251829080519060200190620013fc92919062001329565b5091602001919060010190620013db565b5b5090506200141d919062001575565b5090565b82805482825590600052602060002090810192821562001475579160200282015b82811115620014745782518290805190602001906200146392919062001329565b509160200191906001019062001442565b5b50905062001484919062001575565b5090565b828054828255906000526020600020908101928215620014dc579160200282015b82811115620014db578251829080519060200190620014ca92919062001329565b5091602001919060010190620014a9565b5b509050620014eb919062001575565b5090565b82805482825590600052602060002090810192821562001543579160200282015b82811115620015425782518290805190602001906200153192919062001329565b509160200191906001019062001510565b5b50905062001552919062001575565b5090565b5b808211156200157157600081600090555060010162001557565b5090565b5b808211156200159957600081816200158f91906200159d565b5060010162001576565b5090565b508054620015ab906200169a565b6000825580601f10620015bf5750620015e0565b601f016020900490600052602060002090810190620015df919062001556565b5b50565b6000620015f08262001648565b620015fc818562001653565b93506200160e81856020860162001664565b6200161981620016ff565b840191505092915050565b60006020820190508181036000830152620016408184620015e3565b905092915050565b600081519050919050565b600082825260208201905092915050565b60005b838110156200168457808201518184015260208101905062001667565b8381111562001694576000848401525b50505050565b60006002820490506001821680620016b357607f821691505b60208210811415620016ca57620016c9620016d0565b5b50919050565b7f4e487b7100000000000000000000000000000000000000000000000000000000600052602260045260246000fd5b6000601f19601f8301169050919050565b613fb580620017206000396000f3fe608060405234801561001057600080fd5b50600436106101375760003560e01c806370a08231116100b8578063a22cb4651161007c578063a22cb465146103ac578063aa704af0146103c8578063b88d4fde146103f8578063c87b56dd14610414578063de9d132f14610444578063e985e9c51461044e57610137565b806370a08231146102ce5780638541155a146102fe5780638ccafcd31461032e5780638f5881671461035e57806395d89b411461038e57610137565b806323b872dd116100ff57806323b872dd146102065780632fbe77a41461022257806342842e0e146102525780636352211e1461026e57806364447a5c1461029e57610137565b806301ffc9a71461013c57806306fdde031461016c578063081812fc1461018a578063095ea7b3146101ba5780631baad315146101d6575b600080fd5b61015660048036038101906101519190612a59565b61047e565b604051610163919061382b565b60405180910390f35b610174610560565b6040516101819190613846565b60405180910390f35b6101a4600480360381019061019f9190612aab565b6105f2565b6040516101b1919061379b565b60405180910390f35b6101d460048036038101906101cf9190612a1d565b610677565b005b6101f060048036038101906101eb9190612aab565b61078f565b6040516101fd9190613846565b60405180910390f35b610220600480360381019061021b9190612917565b6108ad565b005b61023c60048036038101906102379190612aab565b61090d565b6040516102499190613846565b60405180910390f35b61026c60048036038101906102679190612917565b610a2b565b005b61028860048036038101906102839190612aab565b610a4b565b604051610295919061379b565b60405180910390f35b6102b860048036038101906102b39190612aab565b610afd565b6040516102c59190613846565b60405180910390f35b6102e860048036038101906102e391906128b2565b610c1b565b6040516102f59190613aa6565b60405180910390f35b61031860048036038101906103139190612aab565b610cd3565b6040516103259190613846565b60405180910390f35b61034860048036038101906103439190612aab565b610df1565b6040516103559190613846565b60405180910390f35b61037860048036038101906103739190612aab565b610f0f565b6040516103859190613846565b60405180910390f35b61039661102d565b6040516103a39190613846565b60405180910390f35b6103c660048036038101906103c191906129e1565b6110bf565b005b6103e260048036038101906103dd9190612aab565b611240565b6040516103ef9190613846565b60405180910390f35b610412600480360381019061040d9190612966565b61135e565b005b61042e60048036038101906104299190612aab565b6113c0565b60405161043b9190613846565b60405180910390f35b61044c611512565b005b610468600480360381019061046391906128db565b611732565b604051610475919061382b565b60405180910390f35b60007f80ac58cd000000000000000000000000000000000000000000000000000000007bffffffffffffffffffffffffffffffffffffffffffffffffffffffff1916827bffffffffffffffffffffffffffffffffffffffffffffffffffffffff1916148061054957507f5b5e139f000000000000000000000000000000000000000000000000000000007bffffffffffffffffffffffffffffffffffffffffffffffffffffffff1916827bffffffffffffffffffffffffffffffffffffffffffffffffffffffff1916145b8061055957506105588261185f565b5b9050919050565b60606000805461056f90613d45565b80601f016020809104026020016040519081016040528092919081815260200182805461059b90613d45565b80156105e85780601f106105bd576101008083540402835291602001916105e8565b820191906000526020600020905b8154815290600101906020018083116105cb57829003601f168201915b5050505050905090565b60006105fd826118c9565b61063c576040517f08c379a000000000000000000000000000000000000000000000000000000000815260040161063390613a06565b60405180910390fd5b6004600083815260200190815260200160002060009054906101000a900473ffffffffffffffffffffffffffffffffffffffff169050919050565b600061068282610a4b565b90508073ffffffffffffffffffffffffffffffffffffffff168373ffffffffffffffffffffffffffffffffffffffff1614156106f3576040517f08c379a00000000000000000000000000000000000000000000000000000000081526004016106ea90613a66565b60405180910390fd5b8073ffffffffffffffffffffffffffffffffffffffff16610712611935565b73ffffffffffffffffffffffffffffffffffffffff16148061074157506107408161073b611935565b611732565b5b610780576040517f08c379a000000000000000000000000000000000000000000000000000000000815260040161077790613946565b60405180910390fd5b61078a838361193d565b505050565b606060006107c361079f846119f6565b6040516020016107af9190613779565b604051602081830303815290604052611ba3565b9050601180549050816107d69190613dc0565b905060118181548110610812577f4e487b7100000000000000000000000000000000000000000000000000000000600052603260045260246000fd5b90600052602060002001805461082790613d45565b80601f016020809104026020016040519081016040528092919081815260200182805461085390613d45565b80156108a05780601f10610875576101008083540402835291602001916108a0565b820191906000526020600020905b81548152906001019060200180831161088357829003601f168201915b5050505050915050919050565b6108be6108b8611935565b82611bd6565b6108fd576040517f08c379a00000000000000000000000000000000000000000000000000000000081526004016108f490613a86565b60405180910390fd5b610908838383611cb4565b505050565b6060600061094161091d846119f6565b60405160200161092d9190613668565b604051602081830303815290604052611ba3565b9050600f80549050816109549190613dc0565b9050600f8181548110610990577f4e487b7100000000000000000000000000000000000000000000000000000000600052603260045260246000fd5b9060005260206000200180546109a590613d45565b80601f01602080910402602001604051908101604052809291908181526020018280546109d190613d45565b8015610a1e5780601f106109f357610100808354040283529160200191610a1e565b820191906000526020600020905b815481529060010190602001808311610a0157829003601f168201915b5050505050915050919050565b610a468383836040518060200160405280600081525061135e565b505050565b6000806002600084815260200190815260200160002060009054906101000a900473ffffffffffffffffffffffffffffffffffffffff169050600073ffffffffffffffffffffffffffffffffffffffff168173ffffffffffffffffffffffffffffffffffffffff161415610af4576040517f08c379a0000000000000000000000000000000000000000000000000000000008152600401610aeb90613986565b60405180910390fd5b80915050919050565b60606000610b31610b0d846119f6565b604051602001610b1d9190613646565b604051602081830303815290604052611ba3565b9050600f8054905081610b449190613dc0565b9050600f8181548110610b80577f4e487b7100000000000000000000000000000000000000000000000000000000600052603260045260246000fd5b906000526020600020018054610b9590613d45565b80601f0160208091040260200160405190810160405280929190818152602001828054610bc190613d45565b8015610c0e5780601f10610be357610100808354040283529160200191610c0e565b820191906000526020600020905b815481529060010190602001808311610bf157829003601f168201915b5050505050915050919050565b60008073ffffffffffffffffffffffffffffffffffffffff168273ffffffffffffffffffffffffffffffffffffffff161415610c8c576040517f08c379a0000000000000000000000000000000000000000000000000000000008152600401610c8390613966565b60405180910390fd5b600360008373ffffffffffffffffffffffffffffffffffffffff1673ffffffffffffffffffffffffffffffffffffffff168152602001908152602001600020549050919050565b60606000610d07610ce3846119f6565b604051602001610cf3919061368a565b604051602081830303815290604052611ba3565b9050600d8054905081610d1a9190613dc0565b9050600d8181548110610d56577f4e487b7100000000000000000000000000000000000000000000000000000000600052603260045260246000fd5b906000526020600020018054610d6b90613d45565b80601f0160208091040260200160405190810160405280929190818152602001828054610d9790613d45565b8015610de45780601f10610db957610100808354040283529160200191610de4565b820191906000526020600020905b815481529060010190602001808311610dc757829003601f168201915b5050505050915050919050565b60606000610e25610e01846119f6565b604051602001610e119190613757565b604051602081830303815290604052611ba3565b9050600c8054905081610e389190613dc0565b9050600c8181548110610e74577f4e487b7100000000000000000000000000000000000000000000000000000000600052603260045260246000fd5b906000526020600020018054610e8990613d45565b80601f0160208091040260200160405190810160405280929190818152602001828054610eb590613d45565b8015610f025780601f10610ed757610100808354040283529160200191610f02565b820191906000526020600020905b815481529060010190602001808311610ee557829003601f168201915b5050505050915050919050565b60606000610f43610f1f846119f6565b604051602001610f2f91906136ac565b604051602081830303815290604052611ba3565b9050600e8054905081610f569190613dc0565b9050600e8181548110610f92577f4e487b7100000000000000000000000000000000000000000000000000000000600052603260045260246000fd5b906000526020600020018054610fa790613d45565b80601f0160208091040260200160405190810160405280929190818152602001828054610fd390613d45565b80156110205780601f10610ff557610100808354040283529160200191611020565b820191906000526020600020905b81548152906001019060200180831161100357829003601f168201915b5050505050915050919050565b60606001805461103c90613d45565b80601f016020809104026020016040519081016040528092919081815260200182805461106890613d45565b80156110b55780601f1061108a576101008083540402835291602001916110b5565b820191906000526020600020905b81548152906001019060200180831161109857829003601f168201915b5050505050905090565b6110c7611935565b73ffffffffffffffffffffffffffffffffffffffff168273ffffffffffffffffffffffffffffffffffffffff161415611135576040517f08c379a000000000000000000000000000000000000000000000000000000000815260040161112c90613906565b60405180910390fd5b8060056000611142611935565b73ffffffffffffffffffffffffffffffffffffffff1673ffffffffffffffffffffffffffffffffffffffff16815260200190815260200160002060008473ffffffffffffffffffffffffffffffffffffffff1673ffffffffffffffffffffffffffffffffffffffff16815260200190815260200160002060006101000a81548160ff0219169083151502179055508173ffffffffffffffffffffffffffffffffffffffff166111ef611935565b73ffffffffffffffffffffffffffffffffffffffff167f17307eab39ab6107e8899845ad3d59bd9653f200f220920489ca2b5937696c3183604051611234919061382b565b60405180910390a35050565b60606000611274611250846119f6565b6040516020016112609190613713565b604051602081830303815290604052611ba3565b9050601080549050816112879190613dc0565b9050601081815481106112c3577f4e487b7100000000000000000000000000000000000000000000000000000000600052603260045260246000fd5b9060005260206000200180546112d890613d45565b80601f016020809104026020016040519081016040528092919081815260200182805461130490613d45565b80156113515780601f1061132657610100808354040283529160200191611351565b820191906000526020600020905b81548152906001019060200180831161133457829003601f168201915b5050505050915050919050565b61136f611369611935565b83611bd6565b6113ae576040517f08c379a00000000000000000000000000000000000000000000000000000000081526004016113a590613a86565b60405180910390fd5b6113ba84848484611f10565b50505050565b60606113cb826118c9565b61140a576040517f08c379a0000000000000000000000000000000000000000000000000000000008152600401611401906139e6565b60405180910390fd5b600060066000848152602001908152602001600020805461142a90613d45565b80601f016020809104026020016040519081016040528092919081815260200182805461145690613d45565b80156114a35780601f10611478576101008083540402835291602001916114a3565b820191906000526020600020905b81548152906001019060200180831161148657829003601f168201915b5050505050905060006114b4611f6c565b90506000815114156114ca57819250505061150d565b6000825111156114ff5780826040516020016114e7929190613574565b6040516020818303038152906040529250505061150d565b61150884611f83565b925050505b919050565b600061151e600761202a565b9050600061152b82610df1565b9050600061153883610cd3565b9050600061154584610f0f565b9050600083838360405160200161155e93929190613598565b6040516020818303038152906040529050600061157a86610afd565b9050600061158787611240565b905060006115948861078f565b90506000600884600985600a86600b8b6040516020016115bb9897969594939291906135c9565b60405160208183030381529060405290506000611600866115db84612038565b6040516020016115ec9291906136ce565b604051602081830303815290604052612038565b90506000816040516020016116159190613735565b60405160208183030381529060405290506116646040518060400160405280601281526020017f0a2d2d2d2d2d2d2d2d2d2d2d2d2d2d2d2d2d00000000000000000000000000008152506117c6565b61166d816117c6565b6116ab6040518060400160405280601381526020017f2d2d2d2d2d2d2d2d2d2d2d2d2d2d2d2d2d2d0a000000000000000000000000008152506117c6565b6116b5338c6121f6565b6116bf8b82612214565b6116c96007612288565b7febb98688741ffa4c7589bf325de30cf7becb63de567842e1ccdb6cb949fdc82c338c6040516116fa929190613802565b60405180910390a1611725604051806060016040528060258152602001613f1b602591398c3361229e565b5050505050505050505050565b6000600560008473ffffffffffffffffffffffffffffffffffffffff1673ffffffffffffffffffffffffffffffffffffffff16815260200190815260200160002060008373ffffffffffffffffffffffffffffffffffffffff1673ffffffffffffffffffffffffffffffffffffffff16815260200190815260200160002060009054906101000a900460ff16905092915050565b61185c816040516024016117da9190613846565b6040516020818303038152906040527f41304fac000000000000000000000000000000000000000000000000000000007bffffffffffffffffffffffffffffffffffffffffffffffffffffffff19166020820180517bffffffffffffffffffffffffffffffffffffffffffffffffffffffff838183161783525050505061233d565b50565b60007f01ffc9a7000000000000000000000000000000000000000000000000000000007bffffffffffffffffffffffffffffffffffffffffffffffffffffffff1916827bffffffffffffffffffffffffffffffffffffffffffffffffffffffff1916149050919050565b60008073ffffffffffffffffffffffffffffffffffffffff166002600084815260200190815260200160002060009054906101000a900473ffffffffffffffffffffffffffffffffffffffff1673ffffffffffffffffffffffffffffffffffffffff1614159050919050565b600033905090565b816004600083815260200190815260200160002060006101000a81548173ffffffffffffffffffffffffffffffffffffffff021916908373ffffffffffffffffffffffffffffffffffffffff160217905550808273ffffffffffffffffffffffffffffffffffffffff166119b083610a4b565b73ffffffffffffffffffffffffffffffffffffffff167f8c5be1e5ebec7d5bd14f71427d1e84f3dd0314c0f7b2291e5b200ac8c7c3b92560405160405180910390a45050565b60606000821415611a3e576040518060400160405280600181526020017f30000000000000000000000000000000000000000000000000000000000000008152509050611b9e565b600082905060005b60008214611a70578080611a5990613d77565b915050600a82611a699190613bd0565b9150611a46565b60008167ffffffffffffffff811115611ab2577f4e487b7100000000000000000000000000000000000000000000000000000000600052604160045260246000fd5b6040519080825280601f01601f191660200182016040528015611ae45781602001600182028036833780820191505090505b5090505b60008514611b9757600182611afd9190613c5b565b9150600a85611b0c9190613dc0565b6030611b189190613b7a565b60f81b818381518110611b54577f4e487b7100000000000000000000000000000000000000000000000000000000600052603260045260246000fd5b60200101907effffffffffffffffffffffffffffffffffffffffffffffffffffffffffffff1916908160001a905350600a85611b909190613bd0565b9450611ae8565b8093505050505b919050565b600081604051602001611bb6919061355d565b6040516020818303038152906040528051906020012060001c9050919050565b6000611be1826118c9565b611c20576040517f08c379a0000000000000000000000000000000000000000000000000000000008152600401611c1790613926565b60405180910390fd5b6000611c2b83610a4b565b90508073ffffffffffffffffffffffffffffffffffffffff168473ffffffffffffffffffffffffffffffffffffffff161480611c9a57508373ffffffffffffffffffffffffffffffffffffffff16611c82846105f2565b73ffffffffffffffffffffffffffffffffffffffff16145b80611cab5750611caa8185611732565b5b91505092915050565b8273ffffffffffffffffffffffffffffffffffffffff16611cd482610a4b565b73ffffffffffffffffffffffffffffffffffffffff1614611d2a576040517f08c379a0000000000000000000000000000000000000000000000000000000008152600401611d2190613a26565b60405180910390fd5b600073ffffffffffffffffffffffffffffffffffffffff168273ffffffffffffffffffffffffffffffffffffffff161415611d9a576040517f08c379a0000000000000000000000000000000000000000000000000000000008152600401611d91906138e6565b60405180910390fd5b611da5838383612366565b611db060008261193d565b6001600360008573ffffffffffffffffffffffffffffffffffffffff1673ffffffffffffffffffffffffffffffffffffffff1681526020019081526020016000206000828254611e009190613c5b565b925050819055506001600360008473ffffffffffffffffffffffffffffffffffffffff1673ffffffffffffffffffffffffffffffffffffffff1681526020019081526020016000206000828254611e579190613b7a565b92505081905550816002600083815260200190815260200160002060006101000a81548173ffffffffffffffffffffffffffffffffffffffff021916908373ffffffffffffffffffffffffffffffffffffffff160217905550808273ffffffffffffffffffffffffffffffffffffffff168473ffffffffffffffffffffffffffffffffffffffff167fddf252ad1be2c89b69c2b068fc378daa952ba7f163c4a11628f55a4df523b3ef60405160405180910390a4505050565b611f1b848484611cb4565b611f278484848461236b565b611f66576040517f08c379a0000000000000000000000000000000000000000000000000000000008152600401611f5d906138a6565b60405180910390fd5b50505050565b606060405180602001604052806000815250905090565b6060611f8e826118c9565b611fcd576040517f08c379a0000000000000000000000000000000000000000000000000000000008152600401611fc490613a46565b60405180910390fd5b6000611fd7611f6c565b90506000815111611ff75760405180602001604052806000815250612022565b80612001846119f6565b604051602001612012929190613574565b6040516020818303038152906040525b915050919050565b600081600001549050919050565b6060600082519050600081141561206157604051806020016040528060008152509150506121f1565b600060036002836120729190613b7a565b61207c9190613bd0565b60046120889190613c01565b905060006020826120999190613b7a565b67ffffffffffffffff8111156120d8577f4e487b7100000000000000000000000000000000000000000000000000000000600052604160045260246000fd5b6040519080825280601f01601f19166020018201604052801561210a5781602001600182028036833780820191505090505b5090506000604051806060016040528060408152602001613f40604091399050600181016020830160005b868110156121ae5760038101905062ffffff818a015116603f8160121c168401518060081b905060ff603f83600c1c1686015116810190508060081b905060ff603f8360061c1686015116810190508060081b905060ff603f831686015116810190508060e01b90508084526004840193505050612135565b5060038606600181146121c857600281146121d8576121e3565b613d3d60f01b60028303526121e3565b603d60f81b60018303525b508484525050819450505050505b919050565b612210828260405180602001604052806000815250612502565b5050565b61221d826118c9565b61225c576040517f08c379a0000000000000000000000000000000000000000000000000000000008152600401612253906139a6565b60405180910390fd5b8060066000848152602001908152602001600020908051906020019061228392919061273e565b505050565b6001816000016000828254019250508190555050565b6123388383836040516024016122b693929190613868565b6040516020818303038152906040527fe3849f79000000000000000000000000000000000000000000000000000000007bffffffffffffffffffffffffffffffffffffffffffffffffffffffff19166020820180517bffffffffffffffffffffffffffffffffffffffffffffffffffffffff838183161783525050505061233d565b505050565b60008151905060006a636f6e736f6c652e6c6f679050602083016000808483855afa5050505050565b505050565b600061238c8473ffffffffffffffffffffffffffffffffffffffff1661255d565b156124f5578373ffffffffffffffffffffffffffffffffffffffff1663150b7a026123b5611935565b8786866040518563ffffffff1660e01b81526004016123d794939291906137b6565b602060405180830381600087803b1580156123f157600080fd5b505af192505050801561242257506040513d601f19601f8201168201806040525081019061241f9190612a82565b60015b6124a5573d8060008114612452576040519150601f19603f3d011682016040523d82523d6000602084013e612457565b606091505b5060008151141561249d576040517f08c379a0000000000000000000000000000000000000000000000000000000008152600401612494906138a6565b60405180910390fd5b805181602001fd5b63150b7a0260e01b7bffffffffffffffffffffffffffffffffffffffffffffffffffffffff1916817bffffffffffffffffffffffffffffffffffffffffffffffffffffffff1916149150506124fa565b600190505b949350505050565b61250c8383612570565b612519600084848461236b565b612558576040517f08c379a000000000000000000000000000000000000000000000000000000000815260040161254f906138a6565b60405180910390fd5b505050565b600080823b905060008111915050919050565b600073ffffffffffffffffffffffffffffffffffffffff168273ffffffffffffffffffffffffffffffffffffffff1614156125e0576040517f08c379a00000000000000000000000000000000000000000000000000000000081526004016125d7906139c6565b60405180910390fd5b6125e9816118c9565b15612629576040517f08c379a0000000000000000000000000000000000000000000000000000000008152600401612620906138c6565b60405180910390fd5b61263560008383612366565b6001600360008473ffffffffffffffffffffffffffffffffffffffff1673ffffffffffffffffffffffffffffffffffffffff16815260200190815260200160002060008282546126859190613b7a565b92505081905550816002600083815260200190815260200160002060006101000a81548173ffffffffffffffffffffffffffffffffffffffff021916908373ffffffffffffffffffffffffffffffffffffffff160217905550808273ffffffffffffffffffffffffffffffffffffffff16600073ffffffffffffffffffffffffffffffffffffffff167fddf252ad1be2c89b69c2b068fc378daa952ba7f163c4a11628f55a4df523b3ef60405160405180910390a45050565b82805461274a90613d45565b90600052602060002090601f01602090048101928261276c57600085556127b3565b82601f1061278557805160ff19168380011785556127b3565b828001600101855582156127b3579182015b828111156127b2578251825591602001919060010190612797565b5b5090506127c091906127c4565b5090565b5b808211156127dd5760008160009055506001016127c5565b5090565b60006127f46127ef84613af2565b613ac1565b90508281526020810184848401111561280c57600080fd5b612817848285613d03565b509392505050565b60008135905061282e81613ebe565b92915050565b60008135905061284381613ed5565b92915050565b60008135905061285881613eec565b92915050565b60008151905061286d81613eec565b92915050565b600082601f83011261288457600080fd5b81356128948482602086016127e1565b91505092915050565b6000813590506128ac81613f03565b92915050565b6000602082840312156128c457600080fd5b60006128d28482850161281f565b91505092915050565b600080604083850312156128ee57600080fd5b60006128fc8582860161281f565b925050602061290d8582860161281f565b9150509250929050565b60008060006060848603121561292c57600080fd5b600061293a8682870161281f565b935050602061294b8682870161281f565b925050604061295c8682870161289d565b9150509250925092565b6000806000806080858703121561297c57600080fd5b600061298a8782880161281f565b945050602061299b8782880161281f565b93505060406129ac8782880161289d565b925050606085013567ffffffffffffffff8111156129c957600080fd5b6129d587828801612873565b91505092959194509250565b600080604083850312156129f457600080fd5b6000612a028582860161281f565b9250506020612a1385828601612834565b9150509250929050565b60008060408385031215612a3057600080fd5b6000612a3e8582860161281f565b9250506020612a4f8582860161289d565b9150509250929050565b600060208284031215612a6b57600080fd5b6000612a7984828501612849565b91505092915050565b600060208284031215612a9457600080fd5b6000612aa28482850161285e565b91505092915050565b600060208284031215612abd57600080fd5b6000612acb8482850161289d565b91505092915050565b612add81613c8f565b82525050565b612aec81613ca1565b82525050565b6000612afd82613b37565b612b078185613b4d565b9350612b17818560208601613d12565b612b2081613ead565b840191505092915050565b6000612b3682613b42565b612b408185613b5e565b9350612b50818560208601613d12565b612b5981613ead565b840191505092915050565b6000612b6f82613b42565b612b798185613b6f565b9350612b89818560208601613d12565b80840191505092915050565b60008154612ba281613d45565b612bac8186613b6f565b94506001821660008114612bc75760018114612bd857612c0b565b60ff19831686528186019350612c0b565b612be185613b22565b60005b83811015612c0357815481890152600182019150602081019050612be4565b838801955050505b50505092915050565b6000612c21603283613b5e565b91507f4552433732313a207472616e7366657220746f206e6f6e20455243373231526560008301527f63656976657220696d706c656d656e74657200000000000000000000000000006020830152604082019050919050565b6000612c87600b83613b6f565b91507f46495253545f434f4c4f520000000000000000000000000000000000000000006000830152600b82019050919050565b6000612cc7600c83613b6f565b91507f434f4c4f525f5049434b455200000000000000000000000000000000000000006000830152600c82019050919050565b6000612d07601c83613b5e565b91507f4552433732313a20746f6b656e20616c7265616479206d696e746564000000006000830152602082019050919050565b6000612d47602483613b5e565b91507f4552433732313a207472616e7366657220746f20746865207a65726f2061646460008301527f72657373000000000000000000000000000000000000000000000000000000006020830152604082019050919050565b6000612dad601983613b5e565b91507f4552433732313a20617070726f766520746f2063616c6c6572000000000000006000830152602082019050919050565b6000612ded602c83613b5e565b91507f4552433732313a206f70657261746f7220717565727920666f72206e6f6e657860008301527f697374656e7420746f6b656e00000000000000000000000000000000000000006020830152604082019050919050565b6000612e53600d83613b6f565b91507f3c2f746578743e3c2f7376673e000000000000000000000000000000000000006000830152600d82019050919050565b6000612e93603883613b5e565b91507f4552433732313a20617070726f76652063616c6c6572206973206e6f74206f7760008301527f6e6572206e6f7220617070726f76656420666f7220616c6c00000000000000006020830152604082019050919050565b6000612ef9602a83613b5e565b91507f4552433732313a2062616c616e636520717565727920666f7220746865207a6560008301527f726f2061646472657373000000000000000000000000000000000000000000006020830152604082019050919050565b6000612f5f602983613b5e565b91507f4552433732313a206f776e657220717565727920666f72206e6f6e657869737460008301527f656e7420746f6b656e00000000000000000000000000000000000000000000006020830152604082019050919050565b6000612fc5602e83613b5e565b91507f45524337323155524953746f726167653a2055524920736574206f66206e6f6e60008301527f6578697374656e7420746f6b656e0000000000000000000000000000000000006020830152604082019050919050565b600061302b600283613b6f565b91507f227d0000000000000000000000000000000000000000000000000000000000006000830152600282019050919050565b600061306b602083613b5e565b91507f4552433732313a206d696e7420746f20746865207a65726f20616464726573736000830152602082019050919050565b60006130ab600d83613b6f565b91507f5448454e5f5448455f4e4f554e000000000000000000000000000000000000006000830152600d82019050919050565b60006130eb603183613b5e565b91507f45524337323155524953746f726167653a2055524920717565727920666f722060008301527f6e6f6e6578697374656e7420746f6b656e0000000000000000000000000000006020830152604082019050919050565b6000613151602c83613b5e565b91507f4552433732313a20617070726f76656420717565727920666f72206e6f6e657860008301527f697374656e7420746f6b656e00000000000000000000000000000000000000006020830152604082019050919050565b60006131b7601083613b6f565b91507f4c4153545f504552534f4e414c495459000000000000000000000000000000006000830152601082019050919050565b60006131f7602983613b5e565b91507f4552433732313a207472616e73666572206f6620746f6b656e2074686174206960008301527f73206e6f74206f776e00000000000000000000000000000000000000000000006020830152604082019050919050565b600061325d602f83613b5e565b91507f4552433732314d657461646174613a2055524920717565727920666f72206e6f60008301527f6e6578697374656e7420746f6b656e00000000000000000000000000000000006020830152604082019050919050565b60006132c3600a83613b6f565b91507f7b226e616d65223a2022000000000000000000000000000000000000000000006000830152600a82019050919050565b6000613303606083613b6f565b91507f222c20226465736372697074696f6e223a2022416e2075626572206578636c7560008301527f736976652065706963204e465420636f6c6c656374696f6e2e222c2022696d6160208301527f6765223a2022646174613a696d6167652f7376672b786d6c3b6261736536342c6040830152606082019050919050565b600061338f602183613b5e565b91507f4552433732313a20617070726f76616c20746f2063757272656e74206f776e6560008301527f72000000000000000000000000000000000000000000000000000000000000006020830152604082019050919050565b60006133f5600c83613b6f565b91507f5345434f4e445f434f4c4f5200000000000000000000000000000000000000006000830152600c82019050919050565b6000613435601d83613b6f565b91507f646174613a6170706c69636174696f6e2f6a736f6e3b6261736536342c0000006000830152601d82019050919050565b6000613475603183613b5e565b91507f4552433732313a207472616e736665722063616c6c6572206973206e6f74206f60008301527f776e6572206e6f7220617070726f7665640000000000000000000000000000006020830152604082019050919050565b60006134db601383613b6f565b91507f46495253545f5448455f41444a454354495645000000000000000000000000006000830152601382019050919050565b600061351b600b83613b6f565b91507f54484952445f434f4c4f520000000000000000000000000000000000000000006000830152600b82019050919050565b61355781613cf9565b82525050565b60006135698284612b64565b915081905092915050565b60006135808285612b64565b915061358c8284612b64565b91508190509392505050565b60006135a48286612b64565b91506135b08285612b64565b91506135bc8284612b64565b9150819050949350505050565b60006135d5828b612b95565b91506135e1828a612b64565b91506135ed8289612b95565b91506135f98288612b64565b91506136058287612b95565b91506136118286612b64565b915061361d8285612b95565b91506136298284612b64565b915061363482612e46565b91508190509998505050505050505050565b600061365182612c7a565b915061365d8284612b64565b915081905092915050565b600061367382612cba565b915061367f8284612b64565b915081905092915050565b60006136958261309e565b91506136a18284612b64565b915081905092915050565b60006136b7826131aa565b91506136c38284612b64565b915081905092915050565b60006136d9826132b6565b91506136e58285612b64565b91506136f0826132f6565b91506136fc8284612b64565b91506137078261301e565b91508190509392505050565b600061371e826133e8565b915061372a8284612b64565b915081905092915050565b600061374082613428565b915061374c8284612b64565b915081905092915050565b6000613762826134ce565b915061376e8284612b64565b915081905092915050565b60006137848261350e565b91506137908284612b64565b915081905092915050565b60006020820190506137b06000830184612ad4565b92915050565b60006080820190506137cb6000830187612ad4565b6137d86020830186612ad4565b6137e5604083018561354e565b81810360608301526137f78184612af2565b905095945050505050565b60006040820190506138176000830185612ad4565b613824602083018461354e565b9392505050565b60006020820190506138406000830184612ae3565b92915050565b600060208201905081810360008301526138608184612b2b565b905092915050565b600060608201905081810360008301526138828186612b2b565b9050613891602083018561354e565b61389e6040830184612ad4565b949350505050565b600060208201905081810360008301526138bf81612c14565b9050919050565b600060208201905081810360008301526138df81612cfa565b9050919050565b600060208201905081810360008301526138ff81612d3a565b9050919050565b6000602082019050818103600083015261391f81612da0565b9050919050565b6000602082019050818103600083015261393f81612de0565b9050919050565b6000602082019050818103600083015261395f81612e86565b9050919050565b6000602082019050818103600083015261397f81612eec565b9050919050565b6000602082019050818103600083015261399f81612f52565b9050919050565b600060208201905081810360008301526139bf81612fb8565b9050919050565b600060208201905081810360008301526139df8161305e565b9050919050565b600060208201905081810360008301526139ff816130de565b9050919050565b60006020820190508181036000830152613a1f81613144565b9050919050565b60006020820190508181036000830152613a3f816131ea565b9050919050565b60006020820190508181036000830152613a5f81613250565b9050919050565b60006020820190508181036000830152613a7f81613382565b9050919050565b60006020820190508181036000830152613a9f81613468565b9050919050565b6000602082019050613abb600083018461354e565b92915050565b6000604051905081810181811067ffffffffffffffff82111715613ae857613ae7613e7e565b5b8060405250919050565b600067ffffffffffffffff821115613b0d57613b0c613e7e565b5b601f19601f8301169050602081019050919050565b60008190508160005260206000209050919050565b600081519050919050565b600081519050919050565b600082825260208201905092915050565b600082825260208201905092915050565b600081905092915050565b6000613b8582613cf9565b9150613b9083613cf9565b9250827fffffffffffffffffffffffffffffffffffffffffffffffffffffffffffffffff03821115613bc557613bc4613df1565b5b828201905092915050565b6000613bdb82613cf9565b9150613be683613cf9565b925082613bf657613bf5613e20565b5b828204905092915050565b6000613c0c82613cf9565b9150613c1783613cf9565b9250817fffffffffffffffffffffffffffffffffffffffffffffffffffffffffffffffff0483118215151615613c5057613c4f613df1565b5b828202905092915050565b6000613c6682613cf9565b9150613c7183613cf9565b925082821015613c8457613c83613df1565b5b828203905092915050565b6000613c9a82613cd9565b9050919050565b60008115159050919050565b60007fffffffff0000000000000000000000000000000000000000000000000000000082169050919050565b600073ffffffffffffffffffffffffffffffffffffffff82169050919050565b6000819050919050565b82818337600083830152505050565b60005b83811015613d30578082015181840152602081019050613d15565b83811115613d3f576000848401525b50505050565b60006002820490506001821680613d5d57607f821691505b60208210811415613d7157613d70613e4f565b5b50919050565b6000613d8282613cf9565b91507fffffffffffffffffffffffffffffffffffffffffffffffffffffffffffffffff821415613db557613db4613df1565b5b600182019050919050565b6000613dcb82613cf9565b9150613dd683613cf9565b925082613de657613de5613e20565b5b828206905092915050565b7f4e487b7100000000000000000000000000000000000000000000000000000000600052601160045260246000fd5b7f4e487b7100000000000000000000000000000000000000000000000000000000600052601260045260246000fd5b7f4e487b7100000000000000000000000000000000000000000000000000000000600052602260045260246000fd5b7f4e487b7100000000000000000000000000000000000000000000000000000000600052604160045260246000fd5b6000601f19601f8301169050919050565b613ec781613c8f565b8114613ed257600080fd5b50565b613ede81613ca1565b8114613ee957600080fd5b50565b613ef581613cad565b8114613f0057600080fd5b50565b613f0c81613cf9565b8114613f1757600080fd5b5056fe416e204e465420772f20494420257320686173206265656e206d696e74656420746f2025734142434445464748494a4b4c4d4e4f505152535455565758595a6162636465666768696a6b6c6d6e6f707172737475767778797a303132333435363738392b2fa2646970667358221220d858645596626c775e2ce4140edda2bafcd26dee45f46f4d9a62bc162efbbd6964736f6c63430008000033272f3e3c73746f70206f66667365743d27353025272073746f702d636f6c6f723d27272f3e3c2f6c696e6561724772616469656e743e3c2f646566733e3c726563742077696474683d273130302527206865696768743d2731303025272066696c6c3d2775726c28234772616469656e7429272f3e3c7465787420783d273530252720793d273530252720636c6173733d27626173652720646f6d696e616e742d626173656c696e653d276d6964646c652720746578742d616e63686f723d276d6964646c65273e272073746f702d6f7061636974793d27302e35272f3e3c73746f70206f66667365743d2731303025272073746f702d636f6c6f723d273c73766720786d6c6e733d27687474703a2f2f7777772e77332e6f72672f323030302f73766727207072657365727665417370656374526174696f3d27784d696e594d696e206d656574272076696577426f783d273020302033353020333530273e3c646566733e3c6c696e6561724772616469656e742069643d274772616469656e74272078313d2730272078323d2730272079313d2730272079323d2731273e3c73746f70206f66667365743d273025272073746f702d636f6c6f723d27",
  "linkReferences": {},
  "deployedLinkReferences": {}
}