{
  "_format": "hh-sol-artifact-1",
  "contractName": "MyEpicNFT",
  "sourceName": "contracts/MyEpicNFT.sol",
  "abi": [
    {
      "inputs": [],
      "stateMutability": "nonpayable",
      "type": "constructor"
    },
    {
      "anonymous": false,
      "inputs": [
        {
          "indexed": true,
          "internalType": "address",
          "name": "owner",
          "type": "address"
        },
        {
          "indexed": true,
          "internalType": "address",
          "name": "approved",
          "type": "address"
        },
        {
          "indexed": true,
          "internalType": "uint256",
          "name": "tokenId",
          "type": "uint256"
        }
      ],
      "name": "Approval",
      "type": "event"
    },
    {
      "anonymous": false,
      "inputs": [
        {
          "indexed": true,
          "internalType": "address",
          "name": "owner",
          "type": "address"
        },
        {
          "indexed": true,
          "internalType": "address",
          "name": "operator",
          "type": "address"
        },
        {
          "indexed": false,
          "internalType": "bool",
          "name": "approved",
          "type": "bool"
        }
      ],
      "name": "ApprovalForAll",
      "type": "event"
    },
    {
      "anonymous": false,
      "inputs": [
        {
          "indexed": true,
          "internalType": "address",
          "name": "from",
          "type": "address"
        },
        {
          "indexed": true,
          "internalType": "address",
          "name": "to",
          "type": "address"
        },
        {
          "indexed": true,
          "internalType": "uint256",
          "name": "tokenId",
          "type": "uint256"
        }
      ],
      "name": "Transfer",
      "type": "event"
    },
    {
      "inputs": [
        {
          "internalType": "address",
          "name": "to",
          "type": "address"
        },
        {
          "internalType": "uint256",
          "name": "tokenId",
          "type": "uint256"
        }
      ],
      "name": "approve",
      "outputs": [],
      "stateMutability": "nonpayable",
      "type": "function"
    },
    {
      "inputs": [
        {
          "internalType": "address",
          "name": "owner",
          "type": "address"
        }
      ],
      "name": "balanceOf",
      "outputs": [
        {
          "internalType": "uint256",
          "name": "",
          "type": "uint256"
        }
      ],
      "stateMutability": "view",
      "type": "function"
    },
    {
      "inputs": [
        {
          "internalType": "uint256",
          "name": "tokenId",
          "type": "uint256"
        }
      ],
      "name": "generateAdjective",
      "outputs": [
        {
          "internalType": "string",
          "name": "",
          "type": "string"
        }
      ],
      "stateMutability": "view",
      "type": "function"
    },
    {
      "inputs": [
        {
          "internalType": "uint256",
          "name": "tokenId",
          "type": "uint256"
        }
      ],
      "name": "generateNoun",
      "outputs": [
        {
          "internalType": "string",
          "name": "",
          "type": "string"
        }
      ],
      "stateMutability": "view",
      "type": "function"
    },
    {
      "inputs": [
        {
          "internalType": "uint256",
          "name": "tokenId",
          "type": "uint256"
        }
      ],
      "name": "generatePersonality",
      "outputs": [
        {
          "internalType": "string",
          "name": "",
          "type": "string"
        }
      ],
      "stateMutability": "view",
      "type": "function"
    },
    {
      "inputs": [
        {
          "internalType": "uint256",
          "name": "tokenId",
          "type": "uint256"
        }
      ],
      "name": "getApproved",
      "outputs": [
        {
          "internalType": "address",
          "name": "",
          "type": "address"
        }
      ],
      "stateMutability": "view",
      "type": "function"
    },
    {
      "inputs": [
        {
          "internalType": "address",
          "name": "owner",
          "type": "address"
        },
        {
          "internalType": "address",
          "name": "operator",
          "type": "address"
        }
      ],
      "name": "isApprovedForAll",
      "outputs": [
        {
          "internalType": "bool",
          "name": "",
          "type": "bool"
        }
      ],
      "stateMutability": "view",
      "type": "function"
    },
    {
      "inputs": [],
      "name": "makeAnEpicNFT",
      "outputs": [],
      "stateMutability": "nonpayable",
      "type": "function"
    },
    {
      "inputs": [],
      "name": "name",
      "outputs": [
        {
          "internalType": "string",
          "name": "",
          "type": "string"
        }
      ],
      "stateMutability": "view",
      "type": "function"
    },
    {
      "inputs": [
        {
          "internalType": "uint256",
          "name": "tokenId",
          "type": "uint256"
        }
      ],
      "name": "ownerOf",
      "outputs": [
        {
          "internalType": "address",
          "name": "",
          "type": "address"
        }
      ],
      "stateMutability": "view",
      "type": "function"
    },
    {
      "inputs": [
        {
          "internalType": "address",
          "name": "from",
          "type": "address"
        },
        {
          "internalType": "address",
          "name": "to",
          "type": "address"
        },
        {
          "internalType": "uint256",
          "name": "tokenId",
          "type": "uint256"
        }
      ],
      "name": "safeTransferFrom",
      "outputs": [],
      "stateMutability": "nonpayable",
      "type": "function"
    },
    {
      "inputs": [
        {
          "internalType": "address",
          "name": "from",
          "type": "address"
        },
        {
          "internalType": "address",
          "name": "to",
          "type": "address"
        },
        {
          "internalType": "uint256",
          "name": "tokenId",
          "type": "uint256"
        },
        {
          "internalType": "bytes",
          "name": "_data",
          "type": "bytes"
        }
      ],
      "name": "safeTransferFrom",
      "outputs": [],
      "stateMutability": "nonpayable",
      "type": "function"
    },
    {
      "inputs": [
        {
          "internalType": "address",
          "name": "operator",
          "type": "address"
        },
        {
          "internalType": "bool",
          "name": "approved",
          "type": "bool"
        }
      ],
      "name": "setApprovalForAll",
      "outputs": [],
      "stateMutability": "nonpayable",
      "type": "function"
    },
    {
      "inputs": [
        {
          "internalType": "bytes4",
          "name": "interfaceId",
          "type": "bytes4"
        }
      ],
      "name": "supportsInterface",
      "outputs": [
        {
          "internalType": "bool",
          "name": "",
          "type": "bool"
        }
      ],
      "stateMutability": "view",
      "type": "function"
    },
    {
      "inputs": [],
      "name": "symbol",
      "outputs": [
        {
          "internalType": "string",
          "name": "",
          "type": "string"
        }
      ],
      "stateMutability": "view",
      "type": "function"
    },
    {
      "inputs": [
        {
          "internalType": "uint256",
          "name": "tokenId",
          "type": "uint256"
        }
      ],
      "name": "tokenURI",
      "outputs": [
        {
          "internalType": "string",
          "name": "",
          "type": "string"
        }
      ],
      "stateMutability": "view",
      "type": "function"
    },
    {
      "inputs": [
        {
          "internalType": "address",
          "name": "from",
          "type": "address"
        },
        {
          "internalType": "address",
          "name": "to",
          "type": "address"
        },
        {
          "internalType": "uint256",
          "name": "tokenId",
          "type": "uint256"
        }
      ],
      "name": "transferFrom",
      "outputs": [],
      "stateMutability": "nonpayable",
      "type": "function"
    }
  ],
  "bytecode": "0x60806040526040518061020001604052806101c5815260200162004ac26101c59139600890805190602001906200003892919062000fb9565b506040518061028001604052806040518060400160405280600481526020017f457069630000000000000000000000000000000000000000000000000000000081525081526020016040518060400160405280600581526020017f4368696c6c00000000000000000000000000000000000000000000000000000081525081526020016040518060400160405280600681526020017f436f76657274000000000000000000000000000000000000000000000000000081525081526020016040518060400160405280600681526020017f436c6f756479000000000000000000000000000000000000000000000000000081525081526020016040518060400160405280600681526020017f4272617a656e000000000000000000000000000000000000000000000000000081525081526020016040518060400160405280600e81526020017f53636174746572627261696e656400000000000000000000000000000000000081525081526020016040518060400160405280600781526020017f437572696f75730000000000000000000000000000000000000000000000000081525081526020016040518060400160405280600981526020017f536b6570746963616c000000000000000000000000000000000000000000000081525081526020016040518060400160405280600681526020017f536e65616b79000000000000000000000000000000000000000000000000000081525081526020016040518060400160405280600581526020017f44697a7a7900000000000000000000000000000000000000000000000000000081525081526020016040518060400160405280600581526020017f4372617a7900000000000000000000000000000000000000000000000000000081525081526020016040518060400160405280600681526020017f536c65657079000000000000000000000000000000000000000000000000000081525081526020016040518060400160405280600681526020017f48756e677279000000000000000000000000000000000000000000000000000081525081526020016040518060400160405280600781526020017f5765616c7468790000000000000000000000000000000000000000000000000081525081526020016040518060400160405280600981526020017f4f6273657373697665000000000000000000000000000000000000000000000081525081526020016040518060400160405280600b81526020017f4d697363686576696f757300000000000000000000000000000000000000000081525081526020016040518060400160405280600881526020017f47656e65726f757300000000000000000000000000000000000000000000000081525081526020016040518060400160405280600981526020017f4175646163696f7573000000000000000000000000000000000000000000000081525081526020016040518060400160405280600b81526020017f4173746f6e697368696e6700000000000000000000000000000000000000000081525081526020016040518060400160405280600481526020017f476c616d000000000000000000000000000000000000000000000000000000008152508152506009906014620004f19291906200104a565b506040518061024001604052806040518060400160405280600581526020017f50697a7a6100000000000000000000000000000000000000000000000000000081525081526020016040518060400160405280600981526020017f47756163616d6f6c65000000000000000000000000000000000000000000000081525081526020016040518060400160405280600781526020017f4f61746d65616c0000000000000000000000000000000000000000000000000081525081526020016040518060400160405280600481526020017f5461636f0000000000000000000000000000000000000000000000000000000081525081526020016040518060400160405280600781526020017f436f726e646f670000000000000000000000000000000000000000000000000081525081526020016040518060400160405280600581526020017f537573686900000000000000000000000000000000000000000000000000000081525081526020016040518060400160405280600581526020017f52616d656e00000000000000000000000000000000000000000000000000000081525081526020016040518060400160405280600981526020017f537061676865747469000000000000000000000000000000000000000000000081525081526020016040518060400160405280600881526020017f45617379204d616300000000000000000000000000000000000000000000000081525081526020016040518060400160405280600b81526020017f4d696e757465205269636500000000000000000000000000000000000000000081525081526020016040518060400160405280600681526020017f4e6163686f73000000000000000000000000000000000000000000000000000081525081526020016040518060400160405280600881526020017f53617264696e657300000000000000000000000000000000000000000000000081525081526020016040518060400160405280600981526020017f4567672053616c6164000000000000000000000000000000000000000000000081525081526020016040518060400160405280600d81526020017f5065616e7574204275747465720000000000000000000000000000000000000081525081526020016040518060400160405280600e81526020017f466f7274756e6520436f6f6b696500000000000000000000000000000000000081525081526020016040518060400160405280600781526020017f436f636f6e75740000000000000000000000000000000000000000000000000081525081526020016040518060400160405280600b81526020017f4368696d696368616e676100000000000000000000000000000000000000000081525081526020016040518060400160405280600581526020017f5975636361000000000000000000000000000000000000000000000000000000815250815250600a90601262000934929190620010b1565b506040518061028001604052806040518060400160405280600481526020017f53696d700000000000000000000000000000000000000000000000000000000081525081526020016040518060400160405280600481526020017f446976610000000000000000000000000000000000000000000000000000000081525081526020016040518060400160405280600581526020017f437265657000000000000000000000000000000000000000000000000000000081525081526020016040518060400160405280600581526020017f517565656e00000000000000000000000000000000000000000000000000000081525081526020016040518060400160405280600981526020017f436f6c6c6563746f72000000000000000000000000000000000000000000000081525081526020016040518060400160405280600781526020017f5374616c6b65720000000000000000000000000000000000000000000000000081525081526020016040518060400160405280600881526020017f4578706c6f72657200000000000000000000000000000000000000000000000081525081526020016040518060400160405280600981526020017f436f6e717565726f72000000000000000000000000000000000000000000000081525081526020016040518060400160405280600581526020017f536c61766500000000000000000000000000000000000000000000000000000081525081526020016040518060400160405280600481526020017f4b696e670000000000000000000000000000000000000000000000000000000081525081526020016040518060400160405280600681526020017f4b6e69676874000000000000000000000000000000000000000000000000000081525081526020016040518060400160405280600481526020017f537461720000000000000000000000000000000000000000000000000000000081525081526020016040518060400160405280600681526020017f46616e626f79000000000000000000000000000000000000000000000000000081525081526020016040518060400160405280600581526020017f467265616b00000000000000000000000000000000000000000000000000000081525081526020016040518060400160405280600681526020017f486f646c6572000000000000000000000000000000000000000000000000000081525081526020016040518060400160405280600981526020017f44657374726f796572000000000000000000000000000000000000000000000081525081526020016040518060400160405280600781526020017f477265617365720000000000000000000000000000000000000000000000000081525081526020016040518060400160405280600a81526020017f27426f72726f776572270000000000000000000000000000000000000000000081525081526020016040518060400160405280600581526020017f546869656600000000000000000000000000000000000000000000000000000081525081526020016040518060400160405280600781526020017f506f616368657200000000000000000000000000000000000000000000000000815250815250600b90601462000ded9291906200104a565b5034801562000dfb57600080fd5b506040518060400160405280600781526020017f457069634e4654000000000000000000000000000000000000000000000000008152506040518060400160405280600481526020017f4550494300000000000000000000000000000000000000000000000000000000815250816000908051906020019062000e8092919062000fb9565b50806001908051906020019062000e9992919062000fb9565b50505062000ee76040518060400160405280601681526020017f4c65742773206d696e7420616e20457069634e4654210000000000000000000081525062000eed60201b620011f01760201c565b620012d2565b62000f8d8160405160240162000f049190620011e6565b6040516020818303038152906040527f41304fac000000000000000000000000000000000000000000000000000000007bffffffffffffffffffffffffffffffffffffffffffffffffffffffff19166020820180517bffffffffffffffffffffffffffffffffffffffffffffffffffffffff838183161783525050505062000f9060201b60201c565b50565b60008151905060006a636f6e736f6c652e6c6f679050602083016000808483855afa5050505050565b82805462000fc7906200125c565b90600052602060002090601f01602090048101928262000feb576000855562001037565b82601f106200100657805160ff191683800117855562001037565b8280016001018555821562001037579182015b828111156200103657825182559160200191906001019062001019565b5b50905062001046919062001118565b5090565b8280548282559060005260206000209081019282156200109e579160200282015b828111156200109d5782518290805190602001906200108c92919062000fb9565b50916020019190600101906200106b565b5b509050620010ad919062001137565b5090565b82805482825590600052602060002090810192821562001105579160200282015b8281111562001104578251829080519060200190620010f392919062000fb9565b5091602001919060010190620010d2565b5b50905062001114919062001137565b5090565b5b808211156200113357600081600090555060010162001119565b5090565b5b808211156200115b57600081816200115191906200115f565b5060010162001138565b5090565b5080546200116d906200125c565b6000825580601f10620011815750620011a2565b601f016020900490600052602060002090810190620011a1919062001118565b5b50565b6000620011b2826200120a565b620011be818562001215565b9350620011d081856020860162001226565b620011db81620012c1565b840191505092915050565b60006020820190508181036000830152620012028184620011a5565b905092915050565b600081519050919050565b600082825260208201905092915050565b60005b838110156200124657808201518184015260208101905062001229565b8381111562001256576000848401525b50505050565b600060028204905060018216806200127557607f821691505b602082108114156200128c576200128b62001292565b5b50919050565b7f4e487b7100000000000000000000000000000000000000000000000000000000600052602260045260246000fd5b6000601f19601f8301169050919050565b6137e080620012e26000396000f3fe608060405234801561001057600080fd5b506004361061010b5760003560e01c80638541155a116100a2578063a22cb46511610071578063a22cb465146102f0578063b88d4fde1461030c578063c87b56dd14610328578063de9d132f14610358578063e985e9c5146103625761010b565b80638541155a146102425780638ccafcd3146102725780638f588167146102a257806395d89b41146102d25761010b565b806323b872dd116100de57806323b872dd146101aa57806342842e0e146101c65780636352211e146101e257806370a08231146102125761010b565b806301ffc9a71461011057806306fdde0314610140578063081812fc1461015e578063095ea7b31461018e575b600080fd5b61012a60048036038101906101259190612483565b610392565b6040516101379190613056565b60405180910390f35b610148610474565b6040516101559190613071565b60405180910390f35b610178600480360381019061017391906124d5565b610506565b6040516101859190612fef565b60405180910390f35b6101a860048036038101906101a39190612447565b61058b565b005b6101c460048036038101906101bf9190612341565b6106a3565b005b6101e060048036038101906101db9190612341565b610703565b005b6101fc60048036038101906101f791906124d5565b610723565b6040516102099190612fef565b60405180910390f35b61022c600480360381019061022791906122dc565b6107d5565b60405161023991906132d1565b60405180910390f35b61025c600480360381019061025791906124d5565b61088d565b6040516102699190613071565b60405180910390f35b61028c600480360381019061028791906124d5565b6109ab565b6040516102999190613071565b60405180910390f35b6102bc60048036038101906102b791906124d5565b610ac9565b6040516102c99190613071565b60405180910390f35b6102da610be7565b6040516102e79190613071565b60405180910390f35b61030a6004803603810190610305919061240b565b610c79565b005b61032660048036038101906103219190612390565b610dfa565b005b610342600480360381019061033d91906124d5565b610e5c565b60405161034f9190613071565b60405180910390f35b610360610fae565b005b61037c60048036038101906103779190612305565b61115c565b6040516103899190613056565b60405180910390f35b60007f80ac58cd000000000000000000000000000000000000000000000000000000007bffffffffffffffffffffffffffffffffffffffffffffffffffffffff1916827bffffffffffffffffffffffffffffffffffffffffffffffffffffffff1916148061045d57507f5b5e139f000000000000000000000000000000000000000000000000000000007bffffffffffffffffffffffffffffffffffffffffffffffffffffffff1916827bffffffffffffffffffffffffffffffffffffffffffffffffffffffff1916145b8061046d575061046c82611289565b5b9050919050565b60606000805461048390613570565b80601f01602080910402602001604051908101604052809291908181526020018280546104af90613570565b80156104fc5780601f106104d1576101008083540402835291602001916104fc565b820191906000526020600020905b8154815290600101906020018083116104df57829003601f168201915b5050505050905090565b6000610511826112f3565b610550576040517f08c379a000000000000000000000000000000000000000000000000000000000815260040161054790613231565b60405180910390fd5b6004600083815260200190815260200160002060009054906101000a900473ffffffffffffffffffffffffffffffffffffffff169050919050565b600061059682610723565b90508073ffffffffffffffffffffffffffffffffffffffff168373ffffffffffffffffffffffffffffffffffffffff161415610607576040517f08c379a00000000000000000000000000000000000000000000000000000000081526004016105fe90613291565b60405180910390fd5b8073ffffffffffffffffffffffffffffffffffffffff1661062661135f565b73ffffffffffffffffffffffffffffffffffffffff16148061065557506106548161064f61135f565b61115c565b5b610694576040517f08c379a000000000000000000000000000000000000000000000000000000000815260040161068b90613171565b60405180910390fd5b61069e8383611367565b505050565b6106b46106ae61135f565b82611420565b6106f3576040517f08c379a00000000000000000000000000000000000000000000000000000000081526004016106ea906132b1565b60405180910390fd5b6106fe8383836114fe565b505050565b61071e83838360405180602001604052806000815250610dfa565b505050565b6000806002600084815260200190815260200160002060009054906101000a900473ffffffffffffffffffffffffffffffffffffffff169050600073ffffffffffffffffffffffffffffffffffffffff168173ffffffffffffffffffffffffffffffffffffffff1614156107cc576040517f08c379a00000000000000000000000000000000000000000000000000000000081526004016107c3906131b1565b60405180910390fd5b80915050919050565b60008073ffffffffffffffffffffffffffffffffffffffff168273ffffffffffffffffffffffffffffffffffffffff161415610846576040517f08c379a000000000000000000000000000000000000000000000000000000000815260040161083d90613191565b60405180910390fd5b600360008373ffffffffffffffffffffffffffffffffffffffff1673ffffffffffffffffffffffffffffffffffffffff168152602001908152602001600020549050919050565b606060006108c161089d8461175a565b6040516020016108ad9190612f22565b604051602081830303815290604052611907565b9050600a80549050816108d491906135eb565b9050600a8181548110610910577f4e487b7100000000000000000000000000000000000000000000000000000000600052603260045260246000fd5b90600052602060002001805461092590613570565b80601f016020809104026020016040519081016040528092919081815260200182805461095190613570565b801561099e5780601f106109735761010080835404028352916020019161099e565b820191906000526020600020905b81548152906001019060200180831161098157829003601f168201915b5050505050915050919050565b606060006109df6109bb8461175a565b6040516020016109cb9190612fcd565b604051602081830303815290604052611907565b9050600980549050816109f291906135eb565b905060098181548110610a2e577f4e487b7100000000000000000000000000000000000000000000000000000000600052603260045260246000fd5b906000526020600020018054610a4390613570565b80601f0160208091040260200160405190810160405280929190818152602001828054610a6f90613570565b8015610abc5780601f10610a9157610100808354040283529160200191610abc565b820191906000526020600020905b815481529060010190602001808311610a9f57829003601f168201915b5050505050915050919050565b60606000610afd610ad98461175a565b604051602001610ae99190612f44565b604051602081830303815290604052611907565b9050600b8054905081610b1091906135eb565b9050600b8181548110610b4c577f4e487b7100000000000000000000000000000000000000000000000000000000600052603260045260246000fd5b906000526020600020018054610b6190613570565b80601f0160208091040260200160405190810160405280929190818152602001828054610b8d90613570565b8015610bda5780601f10610baf57610100808354040283529160200191610bda565b820191906000526020600020905b815481529060010190602001808311610bbd57829003601f168201915b5050505050915050919050565b606060018054610bf690613570565b80601f0160208091040260200160405190810160405280929190818152602001828054610c2290613570565b8015610c6f5780601f10610c4457610100808354040283529160200191610c6f565b820191906000526020600020905b815481529060010190602001808311610c5257829003601f168201915b5050505050905090565b610c8161135f565b73ffffffffffffffffffffffffffffffffffffffff168273ffffffffffffffffffffffffffffffffffffffff161415610cef576040517f08c379a0000000000000000000000000000000000000000000000000000000008152600401610ce690613131565b60405180910390fd5b8060056000610cfc61135f565b73ffffffffffffffffffffffffffffffffffffffff1673ffffffffffffffffffffffffffffffffffffffff16815260200190815260200160002060008473ffffffffffffffffffffffffffffffffffffffff1673ffffffffffffffffffffffffffffffffffffffff16815260200190815260200160002060006101000a81548160ff0219169083151502179055508173ffffffffffffffffffffffffffffffffffffffff16610da961135f565b73ffffffffffffffffffffffffffffffffffffffff167f17307eab39ab6107e8899845ad3d59bd9653f200f220920489ca2b5937696c3183604051610dee9190613056565b60405180910390a35050565b610e0b610e0561135f565b83611420565b610e4a576040517f08c379a0000000000000000000000000000000000000000000000000000000008152600401610e41906132b1565b60405180910390fd5b610e568484848461193a565b50505050565b6060610e67826112f3565b610ea6576040517f08c379a0000000000000000000000000000000000000000000000000000000008152600401610e9d90613211565b60405180910390fd5b6000600660008481526020019081526020016000208054610ec690613570565b80601f0160208091040260200160405190810160405280929190818152602001828054610ef290613570565b8015610f3f5780601f10610f1457610100808354040283529160200191610f3f565b820191906000526020600020905b815481529060010190602001808311610f2257829003601f168201915b505050505090506000610f50611996565b9050600081511415610f66578192505050610fa9565b600082511115610f9b578082604051602001610f83929190612e9e565b60405160208183030381529060405292505050610fa9565b610fa4846119ad565b925050505b919050565b6000610fba6007611a54565b90506000610fc7826109ab565b90506000610fd48361088d565b90506000610fe184610ac9565b90506000838383604051602001610ffa93929190612ec2565b60405160208183030381529060405290506000600882604051602001611021929190612ef3565b604051602081830303815290604052905060006110668361104184611a62565b604051602001611052929190612f66565b604051602081830303815290604052611a62565b905060008160405160200161107b9190612fab565b60405160208183030381529060405290506110ca6040518060400160405280601281526020017f0a2d2d2d2d2d2d2d2d2d2d2d2d2d2d2d2d2d00000000000000000000000000008152506111f0565b6110d3816111f0565b6111116040518060400160405280601381526020017f2d2d2d2d2d2d2d2d2d2d2d2d2d2d2d2d2d2d0a000000000000000000000000008152506111f0565b61111b3389611c20565b6111258882611c3e565b61112f6007611cb2565b611152604051806060016040528060258152602001613746602591398933611cc8565b5050505050505050565b6000600560008473ffffffffffffffffffffffffffffffffffffffff1673ffffffffffffffffffffffffffffffffffffffff16815260200190815260200160002060008373ffffffffffffffffffffffffffffffffffffffff1673ffffffffffffffffffffffffffffffffffffffff16815260200190815260200160002060009054906101000a900460ff16905092915050565b611286816040516024016112049190613071565b6040516020818303038152906040527f41304fac000000000000000000000000000000000000000000000000000000007bffffffffffffffffffffffffffffffffffffffffffffffffffffffff19166020820180517bffffffffffffffffffffffffffffffffffffffffffffffffffffffff8381831617835250505050611d67565b50565b60007f01ffc9a7000000000000000000000000000000000000000000000000000000007bffffffffffffffffffffffffffffffffffffffffffffffffffffffff1916827bffffffffffffffffffffffffffffffffffffffffffffffffffffffff1916149050919050565b60008073ffffffffffffffffffffffffffffffffffffffff166002600084815260200190815260200160002060009054906101000a900473ffffffffffffffffffffffffffffffffffffffff1673ffffffffffffffffffffffffffffffffffffffff1614159050919050565b600033905090565b816004600083815260200190815260200160002060006101000a81548173ffffffffffffffffffffffffffffffffffffffff021916908373ffffffffffffffffffffffffffffffffffffffff160217905550808273ffffffffffffffffffffffffffffffffffffffff166113da83610723565b73ffffffffffffffffffffffffffffffffffffffff167f8c5be1e5ebec7d5bd14f71427d1e84f3dd0314c0f7b2291e5b200ac8c7c3b92560405160405180910390a45050565b600061142b826112f3565b61146a576040517f08c379a000000000000000000000000000000000000000000000000000000000815260040161146190613151565b60405180910390fd5b600061147583610723565b90508073ffffffffffffffffffffffffffffffffffffffff168473ffffffffffffffffffffffffffffffffffffffff1614806114e457508373ffffffffffffffffffffffffffffffffffffffff166114cc84610506565b73ffffffffffffffffffffffffffffffffffffffff16145b806114f557506114f4818561115c565b5b91505092915050565b8273ffffffffffffffffffffffffffffffffffffffff1661151e82610723565b73ffffffffffffffffffffffffffffffffffffffff1614611574576040517f08c379a000000000000000000000000000000000000000000000000000000000815260040161156b90613251565b60405180910390fd5b600073ffffffffffffffffffffffffffffffffffffffff168273ffffffffffffffffffffffffffffffffffffffff1614156115e4576040517f08c379a00000000000000000000000000000000000000000000000000000000081526004016115db90613111565b60405180910390fd5b6115ef838383611d90565b6115fa600082611367565b6001600360008573ffffffffffffffffffffffffffffffffffffffff1673ffffffffffffffffffffffffffffffffffffffff168152602001908152602001600020600082825461164a9190613486565b925050819055506001600360008473ffffffffffffffffffffffffffffffffffffffff1673ffffffffffffffffffffffffffffffffffffffff16815260200190815260200160002060008282546116a191906133a5565b92505081905550816002600083815260200190815260200160002060006101000a81548173ffffffffffffffffffffffffffffffffffffffff021916908373ffffffffffffffffffffffffffffffffffffffff160217905550808273ffffffffffffffffffffffffffffffffffffffff168473ffffffffffffffffffffffffffffffffffffffff167fddf252ad1be2c89b69c2b068fc378daa952ba7f163c4a11628f55a4df523b3ef60405160405180910390a4505050565b606060008214156117a2576040518060400160405280600181526020017f30000000000000000000000000000000000000000000000000000000000000008152509050611902565b600082905060005b600082146117d45780806117bd906135a2565b915050600a826117cd91906133fb565b91506117aa565b60008167ffffffffffffffff811115611816577f4e487b7100000000000000000000000000000000000000000000000000000000600052604160045260246000fd5b6040519080825280601f01601f1916602001820160405280156118485781602001600182028036833780820191505090505b5090505b600085146118fb576001826118619190613486565b9150600a8561187091906135eb565b603061187c91906133a5565b60f81b8183815181106118b8577f4e487b7100000000000000000000000000000000000000000000000000000000600052603260045260246000fd5b60200101907effffffffffffffffffffffffffffffffffffffffffffffffffffffffffffff1916908160001a905350600a856118f491906133fb565b945061184c565b8093505050505b919050565b60008160405160200161191a9190612e87565b6040516020818303038152906040528051906020012060001c9050919050565b6119458484846114fe565b61195184848484611d95565b611990576040517f08c379a0000000000000000000000000000000000000000000000000000000008152600401611987906130d1565b60405180910390fd5b50505050565b606060405180602001604052806000815250905090565b60606119b8826112f3565b6119f7576040517f08c379a00000000000000000000000000000000000000000000000000000000081526004016119ee90613271565b60405180910390fd5b6000611a01611996565b90506000815111611a215760405180602001604052806000815250611a4c565b80611a2b8461175a565b604051602001611a3c929190612e9e565b6040516020818303038152906040525b915050919050565b600081600001549050919050565b60606000825190506000811415611a8b5760405180602001604052806000815250915050611c1b565b60006003600283611a9c91906133a5565b611aa691906133fb565b6004611ab2919061342c565b90506000602082611ac391906133a5565b67ffffffffffffffff811115611b02577f4e487b7100000000000000000000000000000000000000000000000000000000600052604160045260246000fd5b6040519080825280601f01601f191660200182016040528015611b345781602001600182028036833780820191505090505b509050600060405180606001604052806040815260200161376b604091399050600181016020830160005b86811015611bd85760038101905062ffffff818a015116603f8160121c168401518060081b905060ff603f83600c1c1686015116810190508060081b905060ff603f8360061c1686015116810190508060081b905060ff603f831686015116810190508060e01b90508084526004840193505050611b5f565b506003860660018114611bf25760028114611c0257611c0d565b613d3d60f01b6002830352611c0d565b603d60f81b60018303525b508484525050819450505050505b919050565b611c3a828260405180602001604052806000815250611f2c565b5050565b611c47826112f3565b611c86576040517f08c379a0000000000000000000000000000000000000000000000000000000008152600401611c7d906131d1565b60405180910390fd5b80600660008481526020019081526020016000209080519060200190611cad929190612168565b505050565b6001816000016000828254019250508190555050565b611d62838383604051602401611ce093929190613093565b6040516020818303038152906040527fe3849f79000000000000000000000000000000000000000000000000000000007bffffffffffffffffffffffffffffffffffffffffffffffffffffffff19166020820180517bffffffffffffffffffffffffffffffffffffffffffffffffffffffff8381831617835250505050611d67565b505050565b60008151905060006a636f6e736f6c652e6c6f679050602083016000808483855afa5050505050565b505050565b6000611db68473ffffffffffffffffffffffffffffffffffffffff16611f87565b15611f1f578373ffffffffffffffffffffffffffffffffffffffff1663150b7a02611ddf61135f565b8786866040518563ffffffff1660e01b8152600401611e01949392919061300a565b602060405180830381600087803b158015611e1b57600080fd5b505af1925050508015611e4c57506040513d601f19601f82011682018060405250810190611e4991906124ac565b60015b611ecf573d8060008114611e7c576040519150601f19603f3d011682016040523d82523d6000602084013e611e81565b606091505b50600081511415611ec7576040517f08c379a0000000000000000000000000000000000000000000000000000000008152600401611ebe906130d1565b60405180910390fd5b805181602001fd5b63150b7a0260e01b7bffffffffffffffffffffffffffffffffffffffffffffffffffffffff1916817bffffffffffffffffffffffffffffffffffffffffffffffffffffffff191614915050611f24565b600190505b949350505050565b611f368383611f9a565b611f436000848484611d95565b611f82576040517f08c379a0000000000000000000000000000000000000000000000000000000008152600401611f79906130d1565b60405180910390fd5b505050565b600080823b905060008111915050919050565b600073ffffffffffffffffffffffffffffffffffffffff168273ffffffffffffffffffffffffffffffffffffffff16141561200a576040517f08c379a0000000000000000000000000000000000000000000000000000000008152600401612001906131f1565b60405180910390fd5b612013816112f3565b15612053576040517f08c379a000000000000000000000000000000000000000000000000000000000815260040161204a906130f1565b60405180910390fd5b61205f60008383611d90565b6001600360008473ffffffffffffffffffffffffffffffffffffffff1673ffffffffffffffffffffffffffffffffffffffff16815260200190815260200160002060008282546120af91906133a5565b92505081905550816002600083815260200190815260200160002060006101000a81548173ffffffffffffffffffffffffffffffffffffffff021916908373ffffffffffffffffffffffffffffffffffffffff160217905550808273ffffffffffffffffffffffffffffffffffffffff16600073ffffffffffffffffffffffffffffffffffffffff167fddf252ad1be2c89b69c2b068fc378daa952ba7f163c4a11628f55a4df523b3ef60405160405180910390a45050565b82805461217490613570565b90600052602060002090601f01602090048101928261219657600085556121dd565b82601f106121af57805160ff19168380011785556121dd565b828001600101855582156121dd579182015b828111156121dc5782518255916020019190600101906121c1565b5b5090506121ea91906121ee565b5090565b5b808211156122075760008160009055506001016121ef565b5090565b600061221e6122198461331d565b6132ec565b90508281526020810184848401111561223657600080fd5b61224184828561352e565b509392505050565b600081359050612258816136e9565b92915050565b60008135905061226d81613700565b92915050565b60008135905061228281613717565b92915050565b60008151905061229781613717565b92915050565b600082601f8301126122ae57600080fd5b81356122be84826020860161220b565b91505092915050565b6000813590506122d68161372e565b92915050565b6000602082840312156122ee57600080fd5b60006122fc84828501612249565b91505092915050565b6000806040838503121561231857600080fd5b600061232685828601612249565b925050602061233785828601612249565b9150509250929050565b60008060006060848603121561235657600080fd5b600061236486828701612249565b935050602061237586828701612249565b9250506040612386868287016122c7565b9150509250925092565b600080600080608085870312156123a657600080fd5b60006123b487828801612249565b94505060206123c587828801612249565b93505060406123d6878288016122c7565b925050606085013567ffffffffffffffff8111156123f357600080fd5b6123ff8782880161229d565b91505092959194509250565b6000806040838503121561241e57600080fd5b600061242c85828601612249565b925050602061243d8582860161225e565b9150509250929050565b6000806040838503121561245a57600080fd5b600061246885828601612249565b9250506020612479858286016122c7565b9150509250929050565b60006020828403121561249557600080fd5b60006124a384828501612273565b91505092915050565b6000602082840312156124be57600080fd5b60006124cc84828501612288565b91505092915050565b6000602082840312156124e757600080fd5b60006124f5848285016122c7565b91505092915050565b612507816134ba565b82525050565b612516816134cc565b82525050565b600061252782613362565b6125318185613378565b935061254181856020860161353d565b61254a816136d8565b840191505092915050565b60006125608261336d565b61256a8185613389565b935061257a81856020860161353d565b612583816136d8565b840191505092915050565b60006125998261336d565b6125a3818561339a565b93506125b381856020860161353d565b80840191505092915050565b600081546125cc81613570565b6125d6818661339a565b945060018216600081146125f1576001811461260257612635565b60ff19831686528186019350612635565b61260b8561334d565b60005b8381101561262d5781548189015260018201915060208101905061260e565b838801955050505b50505092915050565b600061264b603283613389565b91507f4552433732313a207472616e7366657220746f206e6f6e20455243373231526560008301527f63656976657220696d706c656d656e74657200000000000000000000000000006020830152604082019050919050565b60006126b1601c83613389565b91507f4552433732313a20746f6b656e20616c7265616479206d696e746564000000006000830152602082019050919050565b60006126f1602483613389565b91507f4552433732313a207472616e7366657220746f20746865207a65726f2061646460008301527f72657373000000000000000000000000000000000000000000000000000000006020830152604082019050919050565b6000612757601983613389565b91507f4552433732313a20617070726f766520746f2063616c6c6572000000000000006000830152602082019050919050565b6000612797602c83613389565b91507f4552433732313a206f70657261746f7220717565727920666f72206e6f6e657860008301527f697374656e7420746f6b656e00000000000000000000000000000000000000006020830152604082019050919050565b60006127fd600d8361339a565b91507f3c2f746578743e3c2f7376673e000000000000000000000000000000000000006000830152600d82019050919050565b600061283d603883613389565b91507f4552433732313a20617070726f76652063616c6c6572206973206e6f74206f7760008301527f6e6572206e6f7220617070726f76656420666f7220616c6c00000000000000006020830152604082019050919050565b60006128a3602a83613389565b91507f4552433732313a2062616c616e636520717565727920666f7220746865207a6560008301527f726f2061646472657373000000000000000000000000000000000000000000006020830152604082019050919050565b6000612909602983613389565b91507f4552433732313a206f776e657220717565727920666f72206e6f6e657869737460008301527f656e7420746f6b656e00000000000000000000000000000000000000000000006020830152604082019050919050565b600061296f602e83613389565b91507f45524337323155524953746f726167653a2055524920736574206f66206e6f6e60008301527f6578697374656e7420746f6b656e0000000000000000000000000000000000006020830152604082019050919050565b60006129d560028361339a565b91507f227d0000000000000000000000000000000000000000000000000000000000006000830152600282019050919050565b6000612a15602083613389565b91507f4552433732313a206d696e7420746f20746865207a65726f20616464726573736000830152602082019050919050565b6000612a55600d8361339a565b91507f5448454e5f5448455f4e4f554e000000000000000000000000000000000000006000830152600d82019050919050565b6000612a95603183613389565b91507f45524337323155524953746f726167653a2055524920717565727920666f722060008301527f6e6f6e6578697374656e7420746f6b656e0000000000000000000000000000006020830152604082019050919050565b6000612afb602c83613389565b91507f4552433732313a20617070726f76656420717565727920666f72206e6f6e657860008301527f697374656e7420746f6b656e00000000000000000000000000000000000000006020830152604082019050919050565b6000612b6160108361339a565b91507f4c4153545f504552534f4e414c495459000000000000000000000000000000006000830152601082019050919050565b6000612ba1602983613389565b91507f4552433732313a207472616e73666572206f6620746f6b656e2074686174206960008301527f73206e6f74206f776e00000000000000000000000000000000000000000000006020830152604082019050919050565b6000612c07602f83613389565b91507f4552433732314d657461646174613a2055524920717565727920666f72206e6f60008301527f6e6578697374656e7420746f6b656e00000000000000000000000000000000006020830152604082019050919050565b6000612c6d600a8361339a565b91507f7b226e616d65223a2022000000000000000000000000000000000000000000006000830152600a82019050919050565b6000612cad602183613389565b91507f4552433732313a20617070726f76616c20746f2063757272656e74206f776e6560008301527f72000000000000000000000000000000000000000000000000000000000000006020830152604082019050919050565b6000612d13601d8361339a565b91507f646174613a6170706c69636174696f6e2f6a736f6e3b6261736536342c0000006000830152601d82019050919050565b6000612d53605c8361339a565b91507f222c20226465736372697074696f6e223a2022416e2075626572206578636c7560008301527f736976652065706963204e465420636f6c6c656374696f6e2e222c2022696d6160208301527f6765223a2022646174613a696d6167652f7376673b6261736536342c000000006040830152605c82019050919050565b6000612ddf603183613389565b91507f4552433732313a207472616e736665722063616c6c6572206973206e6f74206f60008301527f776e6572206e6f7220617070726f7665640000000000000000000000000000006020830152604082019050919050565b6000612e4560138361339a565b91507f46495253545f5448455f41444a454354495645000000000000000000000000006000830152601382019050919050565b612e8181613524565b82525050565b6000612e93828461258e565b915081905092915050565b6000612eaa828561258e565b9150612eb6828461258e565b91508190509392505050565b6000612ece828661258e565b9150612eda828561258e565b9150612ee6828461258e565b9150819050949350505050565b6000612eff82856125bf565b9150612f0b828461258e565b9150612f16826127f0565b91508190509392505050565b6000612f2d82612a48565b9150612f39828461258e565b915081905092915050565b6000612f4f82612b54565b9150612f5b828461258e565b915081905092915050565b6000612f7182612c60565b9150612f7d828561258e565b9150612f8882612d46565b9150612f94828461258e565b9150612f9f826129c8565b91508190509392505050565b6000612fb682612d06565b9150612fc2828461258e565b915081905092915050565b6000612fd882612e38565b9150612fe4828461258e565b915081905092915050565b600060208201905061300460008301846124fe565b92915050565b600060808201905061301f60008301876124fe565b61302c60208301866124fe565b6130396040830185612e78565b818103606083015261304b818461251c565b905095945050505050565b600060208201905061306b600083018461250d565b92915050565b6000602082019050818103600083015261308b8184612555565b905092915050565b600060608201905081810360008301526130ad8186612555565b90506130bc6020830185612e78565b6130c960408301846124fe565b949350505050565b600060208201905081810360008301526130ea8161263e565b9050919050565b6000602082019050818103600083015261310a816126a4565b9050919050565b6000602082019050818103600083015261312a816126e4565b9050919050565b6000602082019050818103600083015261314a8161274a565b9050919050565b6000602082019050818103600083015261316a8161278a565b9050919050565b6000602082019050818103600083015261318a81612830565b9050919050565b600060208201905081810360008301526131aa81612896565b9050919050565b600060208201905081810360008301526131ca816128fc565b9050919050565b600060208201905081810360008301526131ea81612962565b9050919050565b6000602082019050818103600083015261320a81612a08565b9050919050565b6000602082019050818103600083015261322a81612a88565b9050919050565b6000602082019050818103600083015261324a81612aee565b9050919050565b6000602082019050818103600083015261326a81612b94565b9050919050565b6000602082019050818103600083015261328a81612bfa565b9050919050565b600060208201905081810360008301526132aa81612ca0565b9050919050565b600060208201905081810360008301526132ca81612dd2565b9050919050565b60006020820190506132e66000830184612e78565b92915050565b6000604051905081810181811067ffffffffffffffff82111715613313576133126136a9565b5b8060405250919050565b600067ffffffffffffffff821115613338576133376136a9565b5b601f19601f8301169050602081019050919050565b60008190508160005260206000209050919050565b600081519050919050565b600081519050919050565b600082825260208201905092915050565b600082825260208201905092915050565b600081905092915050565b60006133b082613524565b91506133bb83613524565b9250827fffffffffffffffffffffffffffffffffffffffffffffffffffffffffffffffff038211156133f0576133ef61361c565b5b828201905092915050565b600061340682613524565b915061341183613524565b9250826134215761342061364b565b5b828204905092915050565b600061343782613524565b915061344283613524565b9250817fffffffffffffffffffffffffffffffffffffffffffffffffffffffffffffffff048311821515161561347b5761347a61361c565b5b828202905092915050565b600061349182613524565b915061349c83613524565b9250828210156134af576134ae61361c565b5b828203905092915050565b60006134c582613504565b9050919050565b60008115159050919050565b60007fffffffff0000000000000000000000000000000000000000000000000000000082169050919050565b600073ffffffffffffffffffffffffffffffffffffffff82169050919050565b6000819050919050565b82818337600083830152505050565b60005b8381101561355b578082015181840152602081019050613540565b8381111561356a576000848401525b50505050565b6000600282049050600182168061358857607f821691505b6020821081141561359c5761359b61367a565b5b50919050565b60006135ad82613524565b91507fffffffffffffffffffffffffffffffffffffffffffffffffffffffffffffffff8214156135e0576135df61361c565b5b600182019050919050565b60006135f682613524565b915061360183613524565b9250826136115761361061364b565b5b828206905092915050565b7f4e487b7100000000000000000000000000000000000000000000000000000000600052601160045260246000fd5b7f4e487b7100000000000000000000000000000000000000000000000000000000600052601260045260246000fd5b7f4e487b7100000000000000000000000000000000000000000000000000000000600052602260045260246000fd5b7f4e487b7100000000000000000000000000000000000000000000000000000000600052604160045260246000fd5b6000601f19601f8301169050919050565b6136f2816134ba565b81146136fd57600080fd5b50565b613709816134cc565b811461371457600080fd5b50565b613720816134d8565b811461372b57600080fd5b50565b61373781613524565b811461374257600080fd5b5056fe416e204e465420772f20494420257320686173206265656e206d696e74656420746f2025734142434445464748494a4b4c4d4e4f505152535455565758595a6162636465666768696a6b6c6d6e6f707172737475767778797a303132333435363738392b2fa2646970667358221220bd3c80196f9f3944c292d306aa34454b102b274b8740e2d6c7c8b9ca8060547864736f6c634300080000333c73766720786d6c6e733d27687474703a2f2f7777772e77332e6f72672f323030302f73766727207072657365727665417370656374526174696f3d27784d696e594d696e206d656574272076696577426f783d273020302033353020333530273e3c6c696e6561724772616469656e742069643d274772616469656e74272078313d2730272078323d27302079313d2730272079323d2731273e3c73746f70206f66667365743d273025272073746f702d636f6c6f723d2723373430306238272f3e3c73746f70206f66667365743d27353025272073746f702d636f6c6f723d2723356536306365272073746f702d6f7061636974793d27302e35272f3e3c73746f70206f66667365743d2731303025272073746f702d636f6c6f723d2723363464666466272f3e3c2f6c696e6561724772616469656e743e3c726563742077696474683d273130302527206865696768743d2731303025272066696c6c3d2775726c28234772616469656e7429272f3e3c7465787420783d273530252720793d273530252720636c6173733d27626173652720646f6d696e616e742d626173656c696e653d276d6964646c652720746578742d616e63686f723d276d6964646c65273e",
  "linkReferences": {},
  "deployedLinkReferences": {}
}